{
  "contractName": "SpecificProvenance",
  "abi": [
    {
      "anonymous": false,
      "inputs": [
        {
          "indexed": true,
          "internalType": "address",
          "name": "owner",
          "type": "address"
        },
        {
          "indexed": true,
          "internalType": "address",
          "name": "approved",
          "type": "address"
        },
        {
          "indexed": true,
          "internalType": "uint256",
          "name": "tokenId",
          "type": "uint256"
        }
      ],
      "name": "Approval",
      "type": "event"
    },
    {
      "anonymous": false,
      "inputs": [
        {
          "indexed": true,
          "internalType": "address",
          "name": "owner",
          "type": "address"
        },
        {
          "indexed": true,
          "internalType": "address",
          "name": "operator",
          "type": "address"
        },
        {
          "indexed": false,
          "internalType": "bool",
          "name": "approved",
          "type": "bool"
        }
      ],
      "name": "ApprovalForAll",
      "type": "event"
    },
    {
      "anonymous": false,
      "inputs": [
        {
          "indexed": false,
          "internalType": "uint256",
          "name": "provId",
          "type": "uint256"
        },
        {
          "indexed": false,
          "internalType": "uint256",
          "name": "index",
          "type": "uint256"
        },
        {
          "indexed": true,
          "internalType": "uint256",
          "name": "tokenId",
          "type": "uint256"
        },
        {
          "indexed": false,
          "internalType": "string",
          "name": "context",
          "type": "string"
        }
      ],
      "name": "CreateProvenanceEvent",
      "type": "event"
    },
    {
      "anonymous": false,
      "inputs": [
        {
          "indexed": true,
          "internalType": "uint256",
          "name": "provId",
          "type": "uint256"
        },
        {
          "indexed": false,
          "internalType": "uint256",
          "name": "index",
          "type": "uint256"
        }
      ],
      "name": "DeleteProvenanceEvent",
      "type": "event"
    },
    {
      "anonymous": false,
      "inputs": [
        {
          "indexed": true,
          "internalType": "address",
          "name": "from",
          "type": "address"
        },
        {
          "indexed": true,
          "internalType": "address",
          "name": "to",
          "type": "address"
        },
        {
          "indexed": true,
          "internalType": "uint256",
          "name": "tokenId",
          "type": "uint256"
        }
      ],
      "name": "Transfer",
      "type": "event"
    },
    {
      "anonymous": false,
      "inputs": [
        {
          "indexed": true,
          "internalType": "uint256",
          "name": "provId",
          "type": "uint256"
        },
        {
          "indexed": false,
          "internalType": "uint256",
          "name": "index",
          "type": "uint256"
        },
        {
          "indexed": true,
          "internalType": "uint256",
          "name": "tokenId",
          "type": "uint256"
        },
        {
          "indexed": false,
          "internalType": "string",
          "name": "context",
          "type": "string"
        }
      ],
      "name": "UpdateProvenanceEvent",
      "type": "event"
    },
    {
      "constant": false,
      "inputs": [
        {
          "internalType": "address",
          "name": "to",
          "type": "address"
        },
        {
          "internalType": "uint256",
          "name": "tokenId",
          "type": "uint256"
        }
      ],
      "name": "approve",
      "outputs": [],
      "payable": false,
      "stateMutability": "nonpayable",
      "type": "function"
    },
    {
      "constant": true,
      "inputs": [
        {
          "internalType": "address",
          "name": "owner",
          "type": "address"
        }
      ],
      "name": "balanceOf",
      "outputs": [
        {
          "internalType": "uint256",
          "name": "",
          "type": "uint256"
        }
      ],
      "payable": false,
      "stateMutability": "view",
      "type": "function"
    },
    {
      "constant": true,
      "inputs": [],
      "name": "baseURI",
      "outputs": [
        {
          "internalType": "string",
          "name": "",
          "type": "string"
        }
      ],
      "payable": false,
      "stateMutability": "view",
      "type": "function"
    },
    {
      "constant": true,
      "inputs": [
        {
          "internalType": "uint256",
          "name": "tokenId",
          "type": "uint256"
        }
      ],
      "name": "getApproved",
      "outputs": [
        {
          "internalType": "address",
          "name": "",
          "type": "address"
        }
      ],
      "payable": false,
      "stateMutability": "view",
      "type": "function"
    },
    {
      "constant": true,
      "inputs": [
        {
          "internalType": "uint256",
          "name": "_provId",
          "type": "uint256"
        }
      ],
      "name": "getProvenance",
      "outputs": [
        {
          "internalType": "uint256",
          "name": "tokenId",
          "type": "uint256"
        },
        {
          "internalType": "string",
          "name": "context",
          "type": "string"
        },
        {
          "internalType": "uint256",
          "name": "index",
          "type": "uint256"
        }
      ],
      "payable": false,
      "stateMutability": "view",
      "type": "function"
    },
    {
      "constant": true,
      "inputs": [],
      "name": "getProvenanceCount",
      "outputs": [
        {
          "internalType": "uint256",
          "name": "count",
          "type": "uint256"
        }
      ],
      "payable": false,
      "stateMutability": "view",
      "type": "function"
    },
    {
      "constant": true,
      "inputs": [
        {
          "internalType": "uint256",
          "name": "_index",
          "type": "uint256"
        }
      ],
      "name": "getProvenanceIdAtIndex",
      "outputs": [
        {
          "internalType": "uint256",
          "name": "provId",
          "type": "uint256"
        }
      ],
      "payable": false,
      "stateMutability": "view",
      "type": "function"
    },
    {
      "constant": true,
      "inputs": [
        {
          "internalType": "address",
          "name": "owner",
          "type": "address"
        },
        {
          "internalType": "address",
          "name": "operator",
          "type": "address"
        }
      ],
      "name": "isApprovedForAll",
      "outputs": [
        {
          "internalType": "bool",
          "name": "",
          "type": "bool"
        }
      ],
      "payable": false,
      "stateMutability": "view",
      "type": "function"
    },
    {
      "constant": true,
      "inputs": [
        {
          "internalType": "uint256",
          "name": "_provId",
          "type": "uint256"
        }
      ],
      "name": "isProvenance",
      "outputs": [
        {
          "internalType": "bool",
          "name": "isIndeed",
          "type": "bool"
        }
      ],
      "payable": false,
      "stateMutability": "view",
      "type": "function"
    },
    {
      "constant": true,
      "inputs": [],
      "name": "name",
      "outputs": [
        {
          "internalType": "string",
          "name": "",
          "type": "string"
        }
      ],
      "payable": false,
      "stateMutability": "view",
      "type": "function"
    },
    {
      "constant": true,
      "inputs": [
        {
          "internalType": "uint256",
          "name": "_tokenId",
          "type": "uint256"
        }
      ],
      "name": "numberOfProvenanceRecordsFor",
      "outputs": [
        {
          "internalType": "uint256",
          "name": "",
          "type": "uint256"
        }
      ],
      "payable": false,
      "stateMutability": "view",
      "type": "function"
    },
    {
      "constant": true,
      "inputs": [
        {
          "internalType": "uint256",
          "name": "tokenId",
          "type": "uint256"
        }
      ],
      "name": "ownerOf",
      "outputs": [
        {
          "internalType": "address",
          "name": "",
          "type": "address"
        }
      ],
      "payable": false,
      "stateMutability": "view",
      "type": "function"
    },
    {
      "constant": true,
      "inputs": [
        {
          "internalType": "uint256",
          "name": "_tokenId",
          "type": "uint256"
        },
        {
          "internalType": "uint256",
          "name": "_index",
          "type": "uint256"
        }
      ],
      "name": "provenanceOfTokenByIndex",
      "outputs": [
        {
          "internalType": "uint256",
          "name": "provId",
          "type": "uint256"
        }
      ],
      "payable": false,
      "stateMutability": "view",
      "type": "function"
    },
    {
      "constant": false,
      "inputs": [
        {
          "internalType": "address",
          "name": "from",
          "type": "address"
        },
        {
          "internalType": "address",
          "name": "to",
          "type": "address"
        },
        {
          "internalType": "uint256",
          "name": "tokenId",
          "type": "uint256"
        }
      ],
      "name": "safeTransferFrom",
      "outputs": [],
      "payable": false,
      "stateMutability": "nonpayable",
      "type": "function"
    },
    {
      "constant": false,
      "inputs": [
        {
          "internalType": "address",
          "name": "from",
          "type": "address"
        },
        {
          "internalType": "address",
          "name": "to",
          "type": "address"
        },
        {
          "internalType": "uint256",
          "name": "tokenId",
          "type": "uint256"
        },
        {
          "internalType": "bytes",
          "name": "_data",
          "type": "bytes"
        }
      ],
      "name": "safeTransferFrom",
      "outputs": [],
      "payable": false,
      "stateMutability": "nonpayable",
      "type": "function"
    },
    {
      "constant": false,
      "inputs": [
        {
          "internalType": "address",
          "name": "to",
          "type": "address"
        },
        {
          "internalType": "bool",
          "name": "approved",
          "type": "bool"
        }
      ],
      "name": "setApprovalForAll",
      "outputs": [],
      "payable": false,
      "stateMutability": "nonpayable",
      "type": "function"
    },
    {
      "constant": true,
      "inputs": [
        {
          "internalType": "bytes4",
          "name": "interfaceId",
          "type": "bytes4"
        }
      ],
      "name": "supportsInterface",
      "outputs": [
        {
          "internalType": "bool",
          "name": "",
          "type": "bool"
        }
      ],
      "payable": false,
      "stateMutability": "view",
      "type": "function"
    },
    {
      "constant": true,
      "inputs": [],
      "name": "symbol",
      "outputs": [
        {
          "internalType": "string",
          "name": "",
          "type": "string"
        }
      ],
      "payable": false,
      "stateMutability": "view",
      "type": "function"
    },
    {
      "constant": true,
      "inputs": [
        {
          "internalType": "uint256",
          "name": "index",
          "type": "uint256"
        }
      ],
      "name": "tokenByIndex",
      "outputs": [
        {
          "internalType": "uint256",
          "name": "",
          "type": "uint256"
        }
      ],
      "payable": false,
      "stateMutability": "view",
      "type": "function"
    },
    {
      "constant": true,
      "inputs": [
        {
          "internalType": "address",
          "name": "owner",
          "type": "address"
        },
        {
          "internalType": "uint256",
          "name": "index",
          "type": "uint256"
        }
      ],
      "name": "tokenOfOwnerByIndex",
      "outputs": [
        {
          "internalType": "uint256",
          "name": "",
          "type": "uint256"
        }
      ],
      "payable": false,
      "stateMutability": "view",
      "type": "function"
    },
    {
      "constant": true,
      "inputs": [
        {
          "internalType": "uint256",
          "name": "tokenId",
          "type": "uint256"
        }
      ],
      "name": "tokenURI",
      "outputs": [
        {
          "internalType": "string",
          "name": "",
          "type": "string"
        }
      ],
      "payable": false,
      "stateMutability": "view",
      "type": "function"
    },
    {
      "constant": true,
      "inputs": [],
      "name": "totalSupply",
      "outputs": [
        {
          "internalType": "uint256",
          "name": "",
          "type": "uint256"
        }
      ],
      "payable": false,
      "stateMutability": "view",
      "type": "function"
    },
    {
      "constant": false,
      "inputs": [
        {
          "internalType": "address",
          "name": "from",
          "type": "address"
        },
        {
          "internalType": "address",
          "name": "to",
          "type": "address"
        },
        {
          "internalType": "uint256",
          "name": "tokenId",
          "type": "uint256"
        }
      ],
      "name": "transferFrom",
      "outputs": [],
      "payable": false,
      "stateMutability": "nonpayable",
      "type": "function"
    },
    {
      "constant": false,
      "inputs": [
        {
          "internalType": "uint256",
          "name": "_tokenId",
          "type": "uint256"
        },
        {
          "internalType": "string",
          "name": "_context",
          "type": "string"
        }
      ],
      "name": "createProvenance",
      "outputs": [
        {
          "internalType": "uint256",
          "name": "index",
          "type": "uint256"
        }
      ],
      "payable": false,
      "stateMutability": "nonpayable",
      "type": "function"
    },
    {
      "constant": false,
      "inputs": [
        {
          "internalType": "uint256",
          "name": "_provId",
          "type": "uint256"
        },
        {
          "internalType": "uint256",
          "name": "_tokenId",
          "type": "uint256"
        },
        {
          "internalType": "string",
          "name": "_context",
          "type": "string"
        }
      ],
      "name": "updateProvenance",
      "outputs": [
        {
          "internalType": "bool",
          "name": "success",
          "type": "bool"
        }
      ],
      "payable": false,
      "stateMutability": "nonpayable",
      "type": "function"
    },
    {
      "constant": false,
      "inputs": [
        {
          "internalType": "uint256",
          "name": "_provId",
          "type": "uint256"
        }
      ],
      "name": "deleteProvenance",
      "outputs": [
        {
          "internalType": "bool",
          "name": "success",
          "type": "bool"
        }
      ],
      "payable": false,
      "stateMutability": "nonpayable",
      "type": "function"
    },
    {
      "constant": false,
      "inputs": [],
      "name": "requestToken",
      "outputs": [
        {
          "internalType": "uint256",
          "name": "tokenId",
          "type": "uint256"
        }
      ],
      "payable": false,
      "stateMutability": "nonpayable",
      "type": "function"
    }
  ],
  "bytecode": "0x600f60809081526e283937bb32b730b731b2aa37b5b2b760891b60a052610100604052600460c090815263282927ab60e11b60e0528181620000516301ffc9a760e01b6001600160e01b03620000d916565b6200006c6380ac58cd60e01b6001600160e01b03620000d916565b8151620000819060059060208501906200015e565b508051620000979060069060208401906200015e565b50620000b3635b5e139f60e01b6001600160e01b03620000d916565b50620000d1905063780e9d6360e01b6001600160e01b03620000d916565b505062000203565b6001600160e01b0319808216141562000139576040805162461bcd60e51b815260206004820152601c60248201527f4552433136353a20696e76616c696420696e7465726661636520696400000000604482015290519081900360640190fd5b6001600160e01b0319166000908152602081905260409020805460ff19166001179055565b828054600181600116156101000203166002900490600052602060002090601f016020900481019282601f10620001a157805160ff1916838001178555620001d1565b82800160010185558215620001d1579182015b82811115620001d1578251825591602001919060010190620001b4565b50620001df929150620001e3565b5090565b6200020091905b80821115620001df5760008155600101620001ea565b90565b6126c080620002136000396000f3fe608060405234801561001057600080fd5b50600436106101b95760003560e01c80636a8ce0b0116100f9578063a3ed8a2111610097578063c87b56dd11610071578063c87b56dd146106e5578063cd8b437214610702578063e985e9c51461071f578063fd957e841461074d576101b9565b8063a3ed8a211461056a578063b3b442d914610572578063b88d4fde1461061f576101b9565b80638eb4eece116100d35780638eb4eece146104f457806395cc39631461051757806395d89b4114610534578063a22cb4651461053c576101b9565b80636a8ce0b0146104a95780636c0360eb146104c657806370a08231146104ce576101b9565b80632f745c59116101665780634d7ec628116101405780634d7ec628146103c45780634f6ccce7146103cc57806360f1233d146103e95780636352211e1461048c576101b9565b80632f745c591461034557806342842e0e1461037157806343cd6bf4146103a7576101b9565b8063095ea7b311610197578063095ea7b3146102c757806318160ddd146102f557806323b872dd1461030f576101b9565b806301ffc9a7146101be57806306fdde0314610211578063081812fc1461028e575b600080fd5b6101fd600480360360208110156101d457600080fd5b50357fffffffff00000000000000000000000000000000000000000000000000000000166107ff565b604080519115158252519081900360200190f35b61021961083a565b6040805160208082528351818301528351919283929083019185019080838360005b8381101561025357818101518382015260200161023b565b50505050905090810190601f1680156102805780820380516001836020036101000a031916815260200191505b509250505060405180910390f35b6102ab600480360360208110156102a457600080fd5b50356108d1565b604080516001600160a01b039092168252519081900360200190f35b6102f3600480360360408110156102dd57600080fd5b506001600160a01b038135169060200135610933565b005b6102fd610a68565b60408051918252519081900360200190f35b6102f36004803603606081101561032557600080fd5b506001600160a01b03813581169160208101359091169060400135610a6e565b6102fd6004803603604081101561035b57600080fd5b506001600160a01b038135169060200135610aca565b6102f36004803603606081101561038757600080fd5b506001600160a01b03813581169160208101359091169060400135610b49565b6101fd600480360360208110156103bd57600080fd5b5035610b64565b6102fd610bbc565b6102fd600480360360208110156103e257600080fd5b5035610bcb565b610406600480360360208110156103ff57600080fd5b5035610c31565b6040518084815260200180602001838152602001828103825284818151815260200191508051906020019080838360005b8381101561044f578181015183820152602001610437565b50505050905090810190601f16801561047c5780820380516001836020036101000a031916815260200191505b5094505050505060405180910390f35b6102ab600480360360208110156104a257600080fd5b5035610d48565b6102fd600480360360208110156104bf57600080fd5b5035610da2565b610219610db4565b6102fd600480360360208110156104e457600080fd5b50356001600160a01b0316610e15565b6102fd6004803603604081101561050a57600080fd5b5080359060200135610e7d565b6102fd6004803603602081101561052d57600080fd5b5035610ead565b610219610f13565b6102f36004803603604081101561055257600080fd5b506001600160a01b0381351690602001351515610f74565b6102fd611097565b6102fd6004803603604081101561058857600080fd5b813591908101906040810160208201356401000000008111156105aa57600080fd5b8201836020820111156105bc57600080fd5b803590602001918460018302840111640100000000831117156105de57600080fd5b91908080601f01602080910402602001604051908101604052809392919081815260200183838082843760009201919091525092955061109d945050505050565b6102f36004803603608081101561063557600080fd5b6001600160a01b0382358116926020810135909116916040820135919081019060808101606082013564010000000081111561067057600080fd5b82018360208201111561068257600080fd5b803590602001918460018302840111640100000000831117156106a457600080fd5b91908080601f0160208091040260200160405190810160405280939291908181526020018383808284376000920191909152509295506110b0945050505050565b610219600480360360208110156106fb57600080fd5b503561110e565b6101fd6004803603602081101561071857600080fd5b50356112da565b6101fd6004803603604081101561073557600080fd5b506001600160a01b03813581169160200135166112e5565b6101fd6004803603606081101561076357600080fd5b81359160208101359181019060608101604082013564010000000081111561078a57600080fd5b82018360208201111561079c57600080fd5b803590602001918460018302840111640100000000831117156107be57600080fd5b91908080601f016020809104026020016040519081016040528093929190818152602001838380828437600092019190915250929550611313945050505050565b7fffffffff00000000000000000000000000000000000000000000000000000000811660009081526020819052604090205460ff165b919050565b60058054604080516020601f60026000196101006001881615020190951694909404938401819004810282018101909252828152606093909290918301828280156108c65780601f1061089b576101008083540402835291602001916108c6565b820191906000526020600020905b8154815290600101906020018083116108a957829003601f168201915b505050505090505b90565b60006108dc82611328565b6109175760405162461bcd60e51b815260040180806020018281038252602c81526020018061258a602c913960400191505060405180910390fd5b506000908152600260205260409020546001600160a01b031690565b600061093e82610d48565b9050806001600160a01b0316836001600160a01b031614156109915760405162461bcd60e51b815260040180806020018281038252602181526020018061260e6021913960400191505060405180910390fd5b806001600160a01b03166109a3611345565b6001600160a01b031614806109c457506109c4816109bf611345565b6112e5565b6109ff5760405162461bcd60e51b81526004018080602001828103825260388152602001806124ff6038913960400191505060405180910390fd5b600082815260026020526040808220805473ffffffffffffffffffffffffffffffffffffffff19166001600160a01b0387811691821790925591518593918516917f8c5be1e5ebec7d5bd14f71427d1e84f3dd0314c0f7b2291e5b200ac8c7c3b92591a4505050565b600b5490565b610a7f610a79611345565b82611349565b610aba5760405162461bcd60e51b815260040180806020018281038252603181526020018061262f6031913960400191505060405180910390fd5b610ac58383836113e5565b505050565b6000610ad583610e15565b8210610b125760405162461bcd60e51b815260040180806020018281038252602b815260200180612452602b913960400191505060405180910390fd5b6001600160a01b0383166000908152600960205260409020805483908110610b3657fe5b9060005260206000200154905092915050565b610ac5838383604051806020016040528060008152506110b0565b600e546000828152600d6020526040812060010154909111610b8857506000610835565b6000828152600d6020526040902060010154600e80548492908110610ba957fe5b9060005260206000200154149050919050565b6000610bc6611404565b905090565b6000610bd5610a68565b8210610c125760405162461bcd60e51b815260040180806020018281038252602c815260200180612660602c913960400191505060405180910390fd5b600b8281548110610c1f57fe5b90600052602060002001549050919050565b600060606000610c4084610b64565b610c91576040805162461bcd60e51b815260206004820152601060248201527f4e6f6e2d6578697374656e74206b657900000000000000000000000000000000604482015290519081900360640190fd5b6000848152600d602090815260409182902080546001808301546002938401805487519381161561010002600019011694909404601f81018690048602830186019096528582529194929391929091849190830182828015610d345780601f10610d0957610100808354040283529160200191610d34565b820191906000526020600020905b815481529060010190602001808311610d1757829003601f168201915b505050505091509250925092509193909250565b6000818152600160205260408120546001600160a01b031680610d9c5760405162461bcd60e51b81526004018080602001828103825260298152602001806125616029913960400191505060405180910390fd5b92915050565b60009081526011602052604090205490565b60078054604080516020601f60026000196101006001881615020190951694909404938401819004810282018101909252828152606093909290918301828280156108c65780601f1061089b576101008083540402835291602001916108c6565b60006001600160a01b038216610e5c5760405162461bcd60e51b815260040180806020018281038252602a815260200180612537602a913960400191505060405180910390fd5b6001600160a01b0382166000908152600360205260409020610d9c9061141b565b6000610e8883610da2565b8210610e9357600080fd5b6000838152601160205260409020805483908110610b3657fe5b600e546000908210610f06576040805162461bcd60e51b815260206004820152601260248201527f4e6f6e2d6578697374656e7420696e6465780000000000000000000000000000604482015290519081900360640190fd5b600e8281548110610c1f57fe5b60068054604080516020601f60026000196101006001881615020190951694909404938401819004810282018101909252828152606093909290918301828280156108c65780601f1061089b576101008083540402835291602001916108c6565b610f7c611345565b6001600160a01b0316826001600160a01b03161415610fe2576040805162461bcd60e51b815260206004820152601960248201527f4552433732313a20617070726f766520746f2063616c6c657200000000000000604482015290519081900360640190fd5b8060046000610fef611345565b6001600160a01b0390811682526020808301939093526040918201600090812091871680825291909352912080547fffffffffffffffffffffffffffffffffffffffffffffffffffffffffffffff001692151592909217909155611051611345565b60408051841515815290516001600160a01b0392909216917f17307eab39ab6107e8899845ad3d59bd9653f200f220920489ca2b5937696c319181900360200190a35050565b600e5490565b60006110a9838361141f565b9392505050565b6110c16110bb611345565b83611349565b6110fc5760405162461bcd60e51b815260040180806020018281038252603181526020018061262f6031913960400191505060405180910390fd5b61110884848484611471565b50505050565b606061111982611328565b6111545760405162461bcd60e51b815260040180806020018281038252602f8152602001806125df602f913960400191505060405180910390fd5b60008281526008602090815260409182902080548351601f60026000196101006001861615020190931692909204918201849004840281018401909452808452606093928301828280156111e95780601f106111be576101008083540402835291602001916111e9565b820191906000526020600020905b8154815290600101906020018083116111cc57829003601f168201915b50505050509050805160001415611210575050604080516020810190915260008152610835565b60078160405160200180838054600181600116156101000203166002900480156112715780601f1061124f576101008083540402835291820191611271565b820191906000526020600020905b81548152906001019060200180831161125d575b5050825160208401908083835b6020831061129d5780518252601f19909201916020918201910161127e565b6001836020036101000a03801982511681845116808217855250505050505090500192505050604051602081830303815290604052915050610835565b6000610d9c826114c3565b6001600160a01b03918216600090815260046020908152604080832093909416825291909152205460ff1690565b600061132084848461150c565b949350505050565b6000908152600160205260409020546001600160a01b0316151590565b3390565b600061135482611328565b61138f5760405162461bcd60e51b815260040180806020018281038252602c8152602001806124d3602c913960400191505060405180910390fd5b600061139a83610d48565b9050806001600160a01b0316846001600160a01b031614806113d55750836001600160a01b03166113ca846108d1565b6001600160a01b0316145b80611320575061132081856112e5565b6113f08383836115a1565b6113fa83826116f2565b610ac582826117e7565b60008061140f611825565b9050610bc63382611833565b5490565b600061142a83611328565b61143357600080fd5b3361143d84610d48565b6001600160a01b03161461145057600080fd5b600061145a611854565b90506114668482611862565b611320818585611894565b61147c8484846113e5565b61148884848484611a28565b6111085760405162461bcd60e51b815260040180806020018281038252603281526020018061247d6032913960400191505060405180910390fd5b6000806114cf83610c31565b50509050336001600160a01b03166114e682610d48565b6001600160a01b0316146114f957600080fd5b6115038184611cda565b6110a983611d6f565b600061151783611328565b61152057600080fd5b3361152a84610d48565b6001600160a01b03161461153d57600080fd5b600061154885610c31565b50509050336001600160a01b031661155f82610d48565b6001600160a01b03161461157257600080fd5b83811461158d576115838186611cda565b61158d8486611862565b611598858585611f4f565b95945050505050565b826001600160a01b03166115b482610d48565b6001600160a01b0316146115f95760405162461bcd60e51b81526004018080602001828103825260298152602001806125b66029913960400191505060405180910390fd5b6001600160a01b03821661163e5760405162461bcd60e51b81526004018080602001828103825260248152602001806124af6024913960400191505060405180910390fd5b61164781612097565b6001600160a01b0383166000908152600360205260409020611668906120e1565b6001600160a01b0382166000908152600360205260409020611689906120f8565b600081815260016020526040808220805473ffffffffffffffffffffffffffffffffffffffff19166001600160a01b0386811691821790925591518493918716917fddf252ad1be2c89b69c2b068fc378daa952ba7f163c4a11628f55a4df523b3ef91a4505050565b6001600160a01b03821660009081526009602052604081205461171c90600163ffffffff61210116565b6000838152600a60205260409020549091508082146117b7576001600160a01b038416600090815260096020526040812080548490811061175957fe5b906000526020600020015490508060096000876001600160a01b03166001600160a01b03168152602001908152602001600020838154811061179757fe5b6000918252602080832090910192909255918252600a9052604090208190555b6001600160a01b03841660009081526009602052604090208054906117e0906000198301612395565b5050505050565b6001600160a01b0390911660009081526009602081815260408084208054868652600a84529185208290559282526001810183559183529091200155565b601080546001019081905590565b61183d8282612143565b61184782826117e7565b61185081612281565b5050565b600f80546001019081905590565b600091825260116020908152604080842080546001810182559085528285208101849055928452601290915290912055565b600061189f84610b64565b156118f1576040805162461bcd60e51b815260206004820152601260248201527f4b657920616c7265616479206578697374730000000000000000000000000000604482015290519081900360640190fd5b6000848152600d602090815260409091208481558351611919926002909201918501906123b9565b50600e805460018181019092557fbb7b4a454dc3493923482f07822329ed19e8244eff582cc204f8554c3620c3fd81018690556000868152600d6020908152604080832090940183905583518881528082018490526060948101858152875195820195909552865188957f1e71e7bfb2f249b16efbd6bff53cfd3ad8eed582f8ff867e967f108c3209c212958b9590948a94936080850192918601918190849084905b838110156119d45781810151838201526020016119bc565b50505050905090810190601f168015611a015780820380516001836020036101000a031916815260200191505b5094505050505060405180910390a25050506000908152600d602052604090206001015490565b6000611a3c846001600160a01b03166122c5565b611a4857506001611320565b600060606001600160a01b0386167f150b7a0200000000000000000000000000000000000000000000000000000000611a7f611345565b89888860405160240180856001600160a01b03166001600160a01b03168152602001846001600160a01b03166001600160a01b0316815260200183815260200180602001828103825283818151815260200191508051906020019080838360005b83811015611af8578181015183820152602001611ae0565b50505050905090810190601f168015611b255780820380516001836020036101000a031916815260200191505b5060408051601f198184030181529181526020820180517bffffffffffffffffffffffffffffffffffffffffffffffffffffffff167fffffffff00000000000000000000000000000000000000000000000000000000909a16999099178952518151919890975087965094509250829150849050835b60208310611bba5780518252601f199092019160209182019101611b9b565b6001836020036101000a0380198251168184511680821785525050505050509050019150506000604051808303816000865af19150503d8060008114611c1c576040519150601f19603f3d011682016040523d82523d6000602084013e611c21565b606091505b509150915081611c7257805115611c3b5780518082602001fd5b60405162461bcd60e51b815260040180806020018281038252603281526020018061247d6032913960400191505060405180910390fd5b6000818060200190516020811015611c8957600080fd5b50517fffffffff00000000000000000000000000000000000000000000000000000000167f150b7a020000000000000000000000000000000000000000000000000000000014935061132092505050565b6000818152601260209081526040808320548584526011909252822080549192916000198101908110611d0957fe5b9060005260206000200154905080601160008681526020019081526020016000208381548110611d3557fe5b60009182526020808320909101929092558281526012825260408082208590558682526011909252208054906117e0906000198301612395565b6000611d7a82610b64565b611dcb576040805162461bcd60e51b815260206004820152601060248201527f4e6f6e2d6578697374656e74206b657900000000000000000000000000000000604482015290519081900360640190fd5b6000828152600d6020526040812060010154600e80549192916000198101908110611df257fe5b9060005260206000200154905080600e8381548110611e0d57fe5b6000918252602080832090910192909255828152600d90915260409020600101829055600e805490611e43906000198301612395565b5060408051838152905185917fe7e87ecee6790f02e298c5c71c0b9c8ba50a01f5cc25d62b93f77eb4e48aed9e919081900360200190a26000818152600d60209081526040918290208054835186815292830184815260029283018054600019610100600183161502011693909304948401859052909385937f09d9d66858f4340498fd7c5f77cb4d8021a66e015e1430b3e3c837743c0036629388939092606083019084908015611f365780601f10611f0b57610100808354040283529160200191611f36565b820191906000526020600020905b815481529060010190602001808311611f1957829003601f168201915b5050935050505060405180910390a35060019392505050565b6000611f5a84610b64565b611fab576040805162461bcd60e51b815260206004820152601060248201527f4e6f6e2d6578697374656e74206b657900000000000000000000000000000000604482015290519081900360640190fd5b6000848152600d602090815260409091208481558351611fd3926002909201918501906123b9565b5082847f09d9d66858f4340498fd7c5f77cb4d8021a66e015e1430b3e3c837743c003662600d600088815260200190815260200160002060010154856040518083815260200180602001828103825283818151815260200191508051906020019080838360005b8381101561205257818101518382015260200161203a565b50505050905090810190601f16801561207f5780820380516001836020036101000a031916815260200191505b50935050505060405180910390a35060019392505050565b6000818152600260205260409020546001600160a01b0316156120de576000818152600260205260409020805473ffffffffffffffffffffffffffffffffffffffff191690555b50565b80546120f490600163ffffffff61210116565b9055565b80546001019055565b60006110a983836040518060400160405280601e81526020017f536166654d6174683a207375627472616374696f6e206f766572666c6f7700008152506122fe565b6001600160a01b03821661219e576040805162461bcd60e51b815260206004820181905260248201527f4552433732313a206d696e7420746f20746865207a65726f2061646472657373604482015290519081900360640190fd5b6121a781611328565b156121f9576040805162461bcd60e51b815260206004820152601c60248201527f4552433732313a20746f6b656e20616c7265616479206d696e74656400000000604482015290519081900360640190fd5b6000818152600160209081526040808320805473ffffffffffffffffffffffffffffffffffffffff19166001600160a01b038716908117909155835260039091529020612245906120f8565b60405181906001600160a01b038416906000907fddf252ad1be2c89b69c2b068fc378daa952ba7f163c4a11628f55a4df523b3ef908290a45050565b600b80546000838152600c60205260408120829055600182018355919091527f0175b7a638427703f0dbe7bb9bbf987a2551717b34e79f33b5b1008d1fa01db90155565b6000813f7fc5d2460186f7233c927e7db2dcc703c0e500b653ca82273b7bfad8045d85a470818114801590611320575050151592915050565b6000818484111561238d5760405162461bcd60e51b81526004018080602001828103825283818151815260200191508051906020019080838360005b8381101561235257818101518382015260200161233a565b50505050905090810190601f16801561237f5780820380516001836020036101000a031916815260200191505b509250505060405180910390fd5b505050900390565b815481835581811115610ac557600083815260209020610ac5918101908301612437565b828054600181600116156101000203166002900490600052602060002090601f016020900481019282601f106123fa57805160ff1916838001178555612427565b82800160010185558215612427579182015b8281111561242757825182559160200191906001019061240c565b50612433929150612437565b5090565b6108ce91905b80821115612433576000815560010161243d56fe455243373231456e756d657261626c653a206f776e657220696e646578206f7574206f6620626f756e64734552433732313a207472616e7366657220746f206e6f6e20455243373231526563656976657220696d706c656d656e7465724552433732313a207472616e7366657220746f20746865207a65726f20616464726573734552433732313a206f70657261746f7220717565727920666f72206e6f6e6578697374656e7420746f6b656e4552433732313a20617070726f76652063616c6c6572206973206e6f74206f776e6572206e6f7220617070726f76656420666f7220616c6c4552433732313a2062616c616e636520717565727920666f7220746865207a65726f20616464726573734552433732313a206f776e657220717565727920666f72206e6f6e6578697374656e7420746f6b656e4552433732313a20617070726f76656420717565727920666f72206e6f6e6578697374656e7420746f6b656e4552433732313a207472616e73666572206f6620746f6b656e2074686174206973206e6f74206f776e4552433732314d657461646174613a2055524920717565727920666f72206e6f6e6578697374656e7420746f6b656e4552433732313a20617070726f76616c20746f2063757272656e74206f776e65724552433732313a207472616e736665722063616c6c6572206973206e6f74206f776e6572206e6f7220617070726f766564455243373231456e756d657261626c653a20676c6f62616c20696e646578206f7574206f6620626f756e6473a265627a7a72315820c76ed7a4d10e4200bb674915a5cb286fc675e8778f8e34af9159957f6f9f9eed64736f6c63430005100032",
  "source": "pragma solidity ^0.5.0;\r\n\r\nimport \"./GenericProvenance.sol\";\r\nimport \"./Provenance.sol\";\r\n\r\ncontract SpecificProvenance is Provenance, GenericProvenance(\"ProvenanceToken\",\"PROV\"){\r\n\r\n    function createProvenance(uint _tokenId, string memory _context) public returns (uint index)\r\n    {\r\n        return _createProvenance(_tokenId, _context);\r\n    }\r\n\r\n    function updateProvenance(uint _provId, uint _tokenId,string memory _context) public returns (bool success)\r\n    {\r\n        return _updateProvenance(_provId, _tokenId, _context);\r\n    }\r\n\r\n    function deleteProvenance(uint _provId)public returns (bool success)\r\n    {\r\n        return _deleteProvenance(_provId);\r\n    }\r\n\r\n    function requestToken() public returns(uint tokenId)\r\n    {\r\n        return _requestToken();\r\n    }\r\n\r\n}",
  "sourcePath": "C:\\Users\\Dario\\Desktop\\Framework-for-smart-grid-security\\Data provenance platform based on blockchain tecnology\\contracts\\SpecificProvenance.sol",
  "compiler": {
    "name": "solc",
    "version": "0.5.16+commit.9c3226ce.Emscripten.clang"
  },
  "schemaVersion": "3.4.10",
  "updatedAt": "2022-11-10T11:13:41.239Z",
  "networkType": "ethereum",
  "devdoc": {
    "methods": {
      "approve(address,uint256)": {
        "details": "Approves another address to transfer the given token ID The zero address indicates there is no approved address. There can only be one approved address per token at a given time. Can only be called by the token owner or an approved operator.",
        "params": {
          "to": "address to be approved for the given token ID",
          "tokenId": "uint256 ID of the token to be approved"
        }
      },
      "balanceOf(address)": {
        "details": "Gets the balance of the specified address.",
        "params": {
          "owner": "address to query the balance of"
        },
        "return": "uint256 representing the amount owned by the passed address"
      },
      "baseURI()": {
        "details": "Returns the base URI set via {_setBaseURI}. This will be automatically added as a preffix in {tokenURI} to each token's URI, when they are non-empty.    * _Available since v2.5.0._"
      },
      "getApproved(uint256)": {
        "details": "Gets the approved address for a token ID, or zero if no address set Reverts if the token ID does not exist.",
        "params": {
          "tokenId": "uint256 ID of the token to query the approval of"
        },
        "return": "address currently approved for the given token ID"
      },
      "isApprovedForAll(address,address)": {
        "details": "Tells whether an operator is approved by a given owner.",
        "params": {
          "operator": "operator address which you want to query the approval of",
          "owner": "owner address which you want to query the approval of"
        },
        "return": "bool whether the given operator is approved by the given owner"
      },
      "name()": {
        "details": "Gets the token name.",
        "return": "string representing the token name"
      },
      "numberOfProvenanceRecordsFor(uint256)": {
        "details": "Gets the amount of provenance records associated with the specified token ID. Reverts if  - the specified token ID does not exist.",
        "params": {
          "_tokenId": "uint256 to query the amount of provenance records of."
        },
        "return": "uint256 representing the amount of provenance records associated with the specified token ID."
      },
      "ownerOf(uint256)": {
        "details": "Gets the owner of the specified token ID.",
        "params": {
          "tokenId": "uint256 ID of the token to query the owner of"
        },
        "return": "address currently marked as the owner of the given token ID"
      },
      "provenanceOfTokenByIndex(uint256,uint256)": {
        "details": "Gets the provenance ID at a given index of the provenance list of the requested token ID. Reverts if  - the requested index is out-of-bounds.",
        "params": {
          "_index": "uint256 representing the index to be accessed of the requested provenance list.",
          "_tokenId": "uint256 owning the provenance list to be accessed."
        },
        "return": "uint256 provenance ID at the given index of the provenance list associated with the given token ID."
      },
      "safeTransferFrom(address,address,uint256)": {
        "details": "Safely transfers the ownership of a given token ID to another address If the target address is a contract, it must implement {IERC721Receiver-onERC721Received}, which is called upon a safe transfer, and return the magic value `bytes4(keccak256(\"onERC721Received(address,address,uint256,bytes)\"))`; otherwise, the transfer is reverted. Requires the msg.sender to be the owner, approved, or operator",
        "params": {
          "from": "current owner of the token",
          "to": "address to receive the ownership of the given token ID",
          "tokenId": "uint256 ID of the token to be transferred"
        }
      },
      "safeTransferFrom(address,address,uint256,bytes)": {
        "details": "Safely transfers the ownership of a given token ID to another address If the target address is a contract, it must implement {IERC721Receiver-onERC721Received}, which is called upon a safe transfer, and return the magic value `bytes4(keccak256(\"onERC721Received(address,address,uint256,bytes)\"))`; otherwise, the transfer is reverted. Requires the _msgSender() to be the owner, approved, or operator",
        "params": {
          "_data": "bytes data to send along with a safe transfer check",
          "from": "current owner of the token",
          "to": "address to receive the ownership of the given token ID",
          "tokenId": "uint256 ID of the token to be transferred"
        }
      },
      "setApprovalForAll(address,bool)": {
        "details": "Sets or unsets the approval of a given operator An operator is allowed to transfer all tokens of the sender on their behalf.",
        "params": {
          "approved": "representing the status of the approval to be set",
          "to": "operator address to set the approval"
        }
      },
      "supportsInterface(bytes4)": {
        "details": "See {IERC165-supportsInterface}.     * Time complexity O(1), guaranteed to always use less than 30 000 gas."
      },
      "symbol()": {
        "details": "Gets the token symbol.",
        "return": "string representing the token symbol"
      },
      "tokenByIndex(uint256)": {
        "details": "Gets the token ID at a given index of all the tokens in this contract Reverts if the index is greater or equal to the total number of tokens.",
        "params": {
          "index": "uint256 representing the index to be accessed of the tokens list"
        },
        "return": "uint256 token ID at the given index of the tokens list"
      },
      "tokenOfOwnerByIndex(address,uint256)": {
        "details": "Gets the token ID at a given index of the tokens list of the requested owner.",
        "params": {
          "index": "uint256 representing the index to be accessed of the requested tokens list",
          "owner": "address owning the tokens list to be accessed"
        },
        "return": "uint256 token ID at the given index of the tokens list owned by the requested address"
      },
      "tokenURI(uint256)": {
        "details": "Returns the URI for a given token ID. May return an empty string.     * If the token's URI is non-empty and a base URI was set (via {_setBaseURI}), it will be added to the token ID's URI as a prefix.     * Reverts if the token ID does not exist."
      },
      "totalSupply()": {
        "details": "Gets the total amount of tokens stored by the contract.",
        "return": "uint256 representing the total amount of tokens"
      },
      "transferFrom(address,address,uint256)": {
        "details": "Transfers the ownership of a given token ID to another address. Usage of this method is discouraged, use {safeTransferFrom} whenever possible. Requires the msg.sender to be the owner, approved, or operator.",
        "params": {
          "from": "current owner of the token",
          "to": "address to receive the ownership of the given token ID",
          "tokenId": "uint256 ID of the token to be transferred"
        }
      }
    }
  },
  "userdoc": {
    "methods": {}
  }
}